{
  "_format": "hh-sol-artifact-1",
  "contractName": "WavePortal",
  "sourceName": "contracts/WavePortal.sol",
  "abi": [
    {
      "inputs": [],
      "stateMutability": "payable",
      "type": "constructor"
    },
    {
      "anonymous": false,
      "inputs": [
        {
          "indexed": true,
          "internalType": "address",
          "name": "from",
          "type": "address"
        },
        {
          "indexed": false,
          "internalType": "uint256",
          "name": "timestamp",
          "type": "uint256"
        },
        {
          "indexed": false,
          "internalType": "string",
          "name": "message",
          "type": "string"
        }
      ],
      "name": "NewWave",
      "type": "event"
    },
    {
      "inputs": [],
      "name": "getAllWaves",
      "outputs": [
        {
          "components": [
            {
              "internalType": "address",
              "name": "waver",
              "type": "address"
            },
            {
              "internalType": "uint256",
              "name": "timestamp",
              "type": "uint256"
            },
            {
              "internalType": "string",
              "name": "message",
              "type": "string"
            }
          ],
          "internalType": "struct WavePortal.Wave[]",
          "name": "",
          "type": "tuple[]"
        }
      ],
      "stateMutability": "view",
      "type": "function"
    },
    {
      "inputs": [
        {
          "internalType": "string",
          "name": "_message",
          "type": "string"
        }
      ],
      "name": "wave",
      "outputs": [],
      "stateMutability": "nonpayable",
      "type": "function"
    }
  ],
  "bytecode": "0x608060405261004c6040518060400160405280600881526020017f444f47574154455200000000000000000000000000000000000000000000000081525061005160201b6103e71760201c565b6101d4565b6100ed816040516024016100659190610152565b6040516020818303038152906040527f41304fac000000000000000000000000000000000000000000000000000000007bffffffffffffffffffffffffffffffffffffffffffffffffffffffff19166020820180517bffffffffffffffffffffffffffffffffffffffffffffffffffffffff83818316178352505050506100f060201b60201c565b50565b60008151905060006a636f6e736f6c652e6c6f679050602083016000808483855afa5050505050565b600061012482610174565b61012e818561017f565b935061013e818560208601610190565b610147816101c3565b840191505092915050565b6000602082019050818103600083015261016c8184610119565b905092915050565b600081519050919050565b600082825260208201905092915050565b60005b838110156101ae578082015181840152602081019050610193565b838111156101bd576000848401525b50505050565b6000601f19601f8301169050919050565b610b1d806101e36000396000f3fe608060405234801561001057600080fd5b50600436106100365760003560e01c8063449d46c01461003b578063bd43a90814610057575b600080fd5b610055600480360381019061005091906105b4565b610075565b005b61005f610296565b60405161006c9190610842565b60405180910390f35b600060405180606001604052803373ffffffffffffffffffffffffffffffffffffffff168152602001428152602001838152509050600081908060018154018082558091505060019003906000526020600020906003020160009091909190915060008201518160000160006101000a81548173ffffffffffffffffffffffffffffffffffffffff021916908373ffffffffffffffffffffffffffffffffffffffff1602179055506020820151816001015560408201518160020190805190602001906101439291906104a9565b5050503373ffffffffffffffffffffffffffffffffffffffff167f5f7e16dc676677766a70e9c5628aa6c54ddb8b6e5188e2ae1e1f17f1ffbea716428460405161018e9291906108c6565b60405180910390a26000655af3107a40009050478111156101e4576040517f08c379a00000000000000000000000000000000000000000000000000000000081526004016101db906108a6565b60405180910390fd5b60003373ffffffffffffffffffffffffffffffffffffffff168260405161020a9061082d565b60006040518083038185875af1925050503d8060008114610247576040519150601f19603f3d011682016040523d82523d6000602084013e61024c565b606091505b5050905080610290576040517f08c379a000000000000000000000000000000000000000000000000000000000815260040161028790610886565b60405180910390fd5b50505050565b60606000805480602002602001604051908101604052809291908181526020016000905b828210156103de57838290600052602060002090600302016040518060600160405290816000820160009054906101000a900473ffffffffffffffffffffffffffffffffffffffff1673ffffffffffffffffffffffffffffffffffffffff1673ffffffffffffffffffffffffffffffffffffffff1681526020016001820154815260200160028201805461034d90610a46565b80601f016020809104026020016040519081016040528092919081815260200182805461037990610a46565b80156103c65780601f1061039b576101008083540402835291602001916103c6565b820191906000526020600020905b8154815290600101906020018083116103a957829003601f168201915b505050505081525050815260200190600101906102ba565b50505050905090565b61047d816040516024016103fb9190610864565b6040516020818303038152906040527f41304fac000000000000000000000000000000000000000000000000000000007bffffffffffffffffffffffffffffffffffffffffffffffffffffffff19166020820180517bffffffffffffffffffffffffffffffffffffffffffffffffffffffff8381831617835250505050610480565b50565b60008151905060006a636f6e736f6c652e6c6f679050602083016000808483855afa5050505050565b8280546104b590610a46565b90600052602060002090601f0160209004810192826104d7576000855561051e565b82601f106104f057805160ff191683800117855561051e565b8280016001018555821561051e579182015b8281111561051d578251825591602001919060010190610502565b5b50905061052b919061052f565b5090565b5b80821115610548576000816000905550600101610530565b5090565b600061055f61055a84610927565b6108f6565b90508281526020810184848401111561057757600080fd5b610582848285610a04565b509392505050565b600082601f83011261059b57600080fd5b81356105ab84826020860161054c565b91505092915050565b6000602082840312156105c657600080fd5b600082013567ffffffffffffffff8111156105e057600080fd5b6105ec8482850161058a565b91505092915050565b600061060183836107bf565b905092915050565b610612816109c8565b82525050565b600061062382610967565b61062d818561098a565b93508360208202850161063f85610957565b8060005b8581101561067b578484038952815161065c85826105f5565b94506106678361097d565b925060208a01995050600181019050610643565b50829750879550505050505092915050565b600061069882610972565b6106a281856109a6565b93506106b2818560208601610a13565b6106bb81610ad6565b840191505092915050565b60006106d182610972565b6106db81856109b7565b93506106eb818560208601610a13565b6106f481610ad6565b840191505092915050565b600061070c6027836109b7565b91507f4661696c656420746f207769746864726177206d6f6e65792066726f6d20636f60008301527f6e74726163742e000000000000000000000000000000000000000000000000006020830152604082019050919050565b60006107726008836109b7565b91507f49276d20706f6f720000000000000000000000000000000000000000000000006000830152602082019050919050565b60006107b260008361099b565b9150600082019050919050565b60006060830160008301516107d76000860182610609565b5060208301516107ea602086018261080f565b5060408301518482036040860152610802828261068d565b9150508091505092915050565b610818816109fa565b82525050565b610827816109fa565b82525050565b6000610838826107a5565b9150819050919050565b6000602082019050818103600083015261085c8184610618565b905092915050565b6000602082019050818103600083015261087e81846106c6565b905092915050565b6000602082019050818103600083015261089f816106ff565b9050919050565b600060208201905081810360008301526108bf81610765565b9050919050565b60006040820190506108db600083018561081e565b81810360208301526108ed81846106c6565b90509392505050565b6000604051905081810181811067ffffffffffffffff8211171561091d5761091c610aa7565b5b8060405250919050565b600067ffffffffffffffff82111561094257610941610aa7565b5b601f19601f8301169050602081019050919050565b6000819050602082019050919050565b600081519050919050565b600081519050919050565b6000602082019050919050565b600082825260208201905092915050565b600081905092915050565b600082825260208201905092915050565b600082825260208201905092915050565b60006109d3826109da565b9050919050565b600073ffffffffffffffffffffffffffffffffffffffff82169050919050565b6000819050919050565b82818337600083830152505050565b60005b83811015610a31578082015181840152602081019050610a16565b83811115610a40576000848401525b50505050565b60006002820490506001821680610a5e57607f821691505b60208210811415610a7257610a71610a78565b5b50919050565b7f4e487b7100000000000000000000000000000000000000000000000000000000600052602260045260246000fd5b7f4e487b7100000000000000000000000000000000000000000000000000000000600052604160045260246000fd5b6000601f19601f830116905091905056fea2646970667358221220de55462ed524fa8b3cff73ddcd4ab828c95eda0a3bffadb6b34bcb7bdc9a570064736f6c63430008000033",
  "linkReferences": {},
  "deployedLinkReferences": {}
}