{
  "_format": "hh-sol-artifact-1",
  "contractName": "WavePortal",
  "sourceName": "contracts/WavePortal.sol",
  "abi": [
    {
      "inputs": [],
      "stateMutability": "payable",
      "type": "constructor"
    },
    {
      "anonymous": false,
      "inputs": [
        {
          "indexed": true,
          "internalType": "address",
          "name": "from",
          "type": "address"
        },
        {
          "indexed": false,
          "internalType": "uint256",
          "name": "timestamp",
          "type": "uint256"
        },
        {
          "indexed": false,
          "internalType": "string",
          "name": "message",
          "type": "string"
        }
      ],
      "name": "NewWave",
      "type": "event"
    },
    {
      "inputs": [],
      "name": "getAllWaves",
      "outputs": [
        {
          "components": [
            {
              "internalType": "address",
              "name": "waver",
              "type": "address"
            },
            {
              "internalType": "uint256",
              "name": "timestamp",
              "type": "uint256"
            },
            {
              "internalType": "string",
              "name": "message",
              "type": "string"
            }
          ],
          "internalType": "struct WavePortal.Wave[]",
          "name": "",
          "type": "tuple[]"
        }
      ],
      "stateMutability": "view",
      "type": "function"
    },
    {
      "inputs": [
        {
          "internalType": "address",
          "name": "",
          "type": "address"
        }
      ],
      "name": "lastWavedAt",
      "outputs": [
        {
          "internalType": "uint256",
          "name": "",
          "type": "uint256"
        }
      ],
      "stateMutability": "view",
      "type": "function"
    },
    {
      "inputs": [
        {
          "internalType": "string",
          "name": "_message",
          "type": "string"
        }
      ],
      "name": "wave",
      "outputs": [],
      "stateMutability": "nonpayable",
      "type": "function"
    }
  ],
  "bytecode": "0x60806040526200004f6040518060400160405280600881526020017f444f4757415445520000000000000000000000000000000000000000000000008152506200007760201b6200057f1760201c565b606444426200005f9190620001c4565b6200006b919062000261565b60018190555062000308565b62000117816040516024016200008e919062000184565b6040516020818303038152906040527f41304fac000000000000000000000000000000000000000000000000000000007bffffffffffffffffffffffffffffffffffffffffffffffffffffffff19166020820180517bffffffffffffffffffffffffffffffffffffffffffffffffffffffff83818316178352505050506200011a60201b60201c565b50565b60008151905060006a636f6e736f6c652e6c6f679050602083016000808483855afa5050505050565b60006200015082620001a8565b6200015c8185620001b3565b93506200016e8185602086016200022b565b6200017981620002f7565b840191505092915050565b60006020820190508181036000830152620001a0818462000143565b905092915050565b600081519050919050565b600082825260208201905092915050565b6000620001d18262000221565b9150620001de8362000221565b9250827fffffffffffffffffffffffffffffffffffffffffffffffffffffffffffffffff0382111562000216576200021562000299565b5b828201905092915050565b6000819050919050565b60005b838110156200024b5780820151818401526020810190506200022e565b838111156200025b576000848401525b50505050565b60006200026e8262000221565b91506200027b8362000221565b9250826200028e576200028d620002c8565b5b828206905092915050565b7f4e487b7100000000000000000000000000000000000000000000000000000000600052601160045260246000fd5b7f4e487b7100000000000000000000000000000000000000000000000000000000600052601260045260246000fd5b6000601f19601f8301169050919050565b610e6a80620003186000396000f3fe608060405234801561001057600080fd5b50600436106100415760003560e01c8063449d46c014610046578063a42a466314610062578063bd43a90814610092575b600080fd5b610060600480360381019061005b919061078a565b6100b0565b005b61007c60048036038101906100779190610761565b610416565b6040516100899190610afc565b60405180910390f35b61009a61042e565b6040516100a79190610a58565b60405180910390f35b42603c600260003373ffffffffffffffffffffffffffffffffffffffff1673ffffffffffffffffffffffffffffffffffffffff168152602001908152602001600020546100fd9190610c19565b1061013d576040517f08c379a000000000000000000000000000000000000000000000000000000000815260040161013490610adc565b60405180910390fd5b42600260003373ffffffffffffffffffffffffffffffffffffffff1673ffffffffffffffffffffffffffffffffffffffff16815260200190815260200160002081905550600060405180606001604052803373ffffffffffffffffffffffffffffffffffffffff168152602001428152602001838152509050600081908060018154018082558091505060019003906000526020600020906003020160009091909190915060008201518160000160006101000a81548173ffffffffffffffffffffffffffffffffffffffff021916908373ffffffffffffffffffffffffffffffffffffffff16021790555060208201518160010155604082015181600201908051906020019061024f929190610641565b505050606460015442446102639190610c19565b61026d9190610c19565b6102779190610d1f565b6001819055506032600154106103c2576000655af3107a40009050478111156102d5576040517f08c379a00000000000000000000000000000000000000000000000000000000081526004016102cc90610abc565b60405180910390fd5b60003373ffffffffffffffffffffffffffffffffffffffff16826040516102fb90610a43565b60006040518083038185875af1925050503d8060008114610338576040519150601f19603f3d011682016040523d82523d6000602084013e61033d565b606091505b5050905080610381576040517f08c379a000000000000000000000000000000000000000000000000000000000815260040161037890610a9c565b60405180910390fd5b6103bf6040518060400160405280601981526020017f596f7520776f6e20616e6420676f7420736f6d6520657468210000000000000081525061057f565b50505b3373ffffffffffffffffffffffffffffffffffffffff167f5f7e16dc676677766a70e9c5628aa6c54ddb8b6e5188e2ae1e1f17f1ffbea716428460405161040a929190610b17565b60405180910390a25050565b60026020528060005260406000206000915090505481565b60606000805480602002602001604051908101604052809291908181526020016000905b8282101561057657838290600052602060002090600302016040518060600160405290816000820160009054906101000a900473ffffffffffffffffffffffffffffffffffffffff1673ffffffffffffffffffffffffffffffffffffffff1673ffffffffffffffffffffffffffffffffffffffff168152602001600182015481526020016002820180546104e590610ced565b80601f016020809104026020016040519081016040528092919081815260200182805461051190610ced565b801561055e5780601f106105335761010080835404028352916020019161055e565b820191906000526020600020905b81548152906001019060200180831161054157829003601f168201915b50505050508152505081526020019060010190610452565b50505050905090565b610615816040516024016105939190610a7a565b6040516020818303038152906040527f41304fac000000000000000000000000000000000000000000000000000000007bffffffffffffffffffffffffffffffffffffffffffffffffffffffff19166020820180517bffffffffffffffffffffffffffffffffffffffffffffffffffffffff8381831617835250505050610618565b50565b60008151905060006a636f6e736f6c652e6c6f679050602083016000808483855afa5050505050565b82805461064d90610ced565b90600052602060002090601f01602090048101928261066f57600085556106b6565b82601f1061068857805160ff19168380011785556106b6565b828001600101855582156106b6579182015b828111156106b557825182559160200191906001019061069a565b5b5090506106c391906106c7565b5090565b5b808211156106e05760008160009055506001016106c8565b5090565b60006106f76106f284610b78565b610b47565b90508281526020810184848401111561070f57600080fd5b61071a848285610cab565b509392505050565b60008135905061073181610e1d565b92915050565b600082601f83011261074857600080fd5b81356107588482602086016106e4565b91505092915050565b60006020828403121561077357600080fd5b600061078184828501610722565b91505092915050565b60006020828403121561079c57600080fd5b600082013567ffffffffffffffff8111156107b657600080fd5b6107c284828501610737565b91505092915050565b60006107d783836109d5565b905092915050565b6107e881610c6f565b82525050565b60006107f982610bb8565b6108038185610bdb565b93508360208202850161081585610ba8565b8060005b85811015610851578484038952815161083285826107cb565b945061083d83610bce565b925060208a01995050600181019050610819565b50829750879550505050505092915050565b600061086e82610bc3565b6108788185610bf7565b9350610888818560208601610cba565b61089181610e0c565b840191505092915050565b60006108a782610bc3565b6108b18185610c08565b93506108c1818560208601610cba565b6108ca81610e0c565b840191505092915050565b60006108e2602783610c08565b91507f4661696c656420746f207769746864726177206d6f6e65792066726f6d20636f60008301527f6e74726163742e000000000000000000000000000000000000000000000000006020830152604082019050919050565b6000610948600883610c08565b91507f49276d20706f6f720000000000000000000000000000000000000000000000006000830152602082019050919050565b6000610988601f83610c08565b91507f43616e206f6e6c792077617665206f6e6365206576657279206d696e757465006000830152602082019050919050565b60006109c8600083610bec565b9150600082019050919050565b60006060830160008301516109ed60008601826107df565b506020830151610a006020860182610a25565b5060408301518482036040860152610a188282610863565b9150508091505092915050565b610a2e81610ca1565b82525050565b610a3d81610ca1565b82525050565b6000610a4e826109bb565b9150819050919050565b60006020820190508181036000830152610a7281846107ee565b905092915050565b60006020820190508181036000830152610a94818461089c565b905092915050565b60006020820190508181036000830152610ab5816108d5565b9050919050565b60006020820190508181036000830152610ad58161093b565b9050919050565b60006020820190508181036000830152610af58161097b565b9050919050565b6000602082019050610b116000830184610a34565b92915050565b6000604082019050610b2c6000830185610a34565b8181036020830152610b3e818461089c565b90509392505050565b6000604051905081810181811067ffffffffffffffff82111715610b6e57610b6d610ddd565b5b8060405250919050565b600067ffffffffffffffff821115610b9357610b92610ddd565b5b601f19601f8301169050602081019050919050565b6000819050602082019050919050565b600081519050919050565b600081519050919050565b6000602082019050919050565b600082825260208201905092915050565b600081905092915050565b600082825260208201905092915050565b600082825260208201905092915050565b6000610c2482610ca1565b9150610c2f83610ca1565b9250827fffffffffffffffffffffffffffffffffffffffffffffffffffffffffffffffff03821115610c6457610c63610d50565b5b828201905092915050565b6000610c7a82610c81565b9050919050565b600073ffffffffffffffffffffffffffffffffffffffff82169050919050565b6000819050919050565b82818337600083830152505050565b60005b83811015610cd8578082015181840152602081019050610cbd565b83811115610ce7576000848401525b50505050565b60006002820490506001821680610d0557607f821691505b60208210811415610d1957610d18610dae565b5b50919050565b6000610d2a82610ca1565b9150610d3583610ca1565b925082610d4557610d44610d7f565b5b828206905092915050565b7f4e487b7100000000000000000000000000000000000000000000000000000000600052601160045260246000fd5b7f4e487b7100000000000000000000000000000000000000000000000000000000600052601260045260246000fd5b7f4e487b7100000000000000000000000000000000000000000000000000000000600052602260045260246000fd5b7f4e487b7100000000000000000000000000000000000000000000000000000000600052604160045260246000fd5b6000601f19601f8301169050919050565b610e2681610c6f565b8114610e3157600080fd5b5056fea2646970667358221220d462af9bef0f28fe2661676131ff59d9e93cfe6c22d578deea65e86bb54cd3f664736f6c63430008000033",
  "linkReferences": {},
  "deployedLinkReferences": {}
}