{
  "_format": "hh-sol-artifact-1",
  "contractName": "WavePortal",
  "sourceName": "contracts/WavePortal.sol",
  "abi": [
    {
      "inputs": [
        {
          "internalType": "string",
          "name": "_mainMessage",
          "type": "string"
        }
      ],
      "stateMutability": "nonpayable",
      "type": "constructor"
    },
    {
      "inputs": [],
      "name": "getMessage",
      "outputs": [
        {
          "internalType": "string",
          "name": "",
          "type": "string"
        }
      ],
      "stateMutability": "view",
      "type": "function"
    },
    {
      "inputs": [],
      "name": "getTotalWaves",
      "outputs": [
        {
          "internalType": "uint256",
          "name": "",
          "type": "uint256"
        }
      ],
      "stateMutability": "view",
      "type": "function"
    },
    {
      "inputs": [
        {
          "internalType": "string",
          "name": "_message",
          "type": "string"
        }
      ],
      "name": "setMessage",
      "outputs": [],
      "stateMutability": "nonpayable",
      "type": "function"
    },
    {
      "inputs": [],
      "name": "wave",
      "outputs": [],
      "stateMutability": "nonpayable",
      "type": "function"
    }
  ],
  "bytecode": "0x60806040523480156200001157600080fd5b5060405162000e3338038062000e3383398181016040528101906200003791906200030a565b80600190805190602001906200004f929190620001e8565b50620001126040518060600160405280602b815260200162000e08602b9139600180546200007d9062000484565b80601f0160208091040260200160405190810160405280929190818152602001828054620000ab9062000484565b8015620000fc5780601f10620000d057610100808354040283529160200191620000fc565b820191906000526020600020905b815481529060010190602001808311620000de57829003601f168201915b50505050506200011960201b620002041760201c565b5062000529565b620001bb82826040516024016200013292919062000390565b6040516020818303038152906040527f4b5c4277000000000000000000000000000000000000000000000000000000007bffffffffffffffffffffffffffffffffffffffffffffffffffffffff19166020820180517bffffffffffffffffffffffffffffffffffffffffffffffffffffffff8381831617835250505050620001bf60201b60201c565b5050565b60008151905060006a636f6e736f6c652e6c6f679050602083016000808483855afa5050505050565b828054620001f69062000484565b90600052602060002090601f0160209004810192826200021a576000855562000266565b82601f106200023557805160ff191683800117855562000266565b8280016001018555821562000266579182015b828111156200026557825182559160200191906001019062000248565b5b50905062000275919062000279565b5090565b5b80821115620002945760008160009055506001016200027a565b5090565b6000620002af620002a984620003ff565b620003cb565b905082815260208101848484011115620002c857600080fd5b620002d58482856200044e565b509392505050565b600082601f830112620002ef57600080fd5b81516200030184826020860162000298565b91505092915050565b6000602082840312156200031d57600080fd5b600082015167ffffffffffffffff8111156200033857600080fd5b6200034684828501620002dd565b91505092915050565b60006200035c8262000432565b6200036881856200043d565b93506200037a8185602086016200044e565b620003858162000518565b840191505092915050565b60006040820190508181036000830152620003ac81856200034f565b90508181036020830152620003c281846200034f565b90509392505050565b6000604051905081810181811067ffffffffffffffff82111715620003f557620003f4620004e9565b5b8060405250919050565b600067ffffffffffffffff8211156200041d576200041c620004e9565b5b601f19601f8301169050602081019050919050565b600081519050919050565b600082825260208201905092915050565b60005b838110156200046e57808201518184015260208101905062000451565b838111156200047e576000848401525b50505050565b600060028204905060018216806200049d57607f821691505b60208210811415620004b457620004b3620004ba565b5b50919050565b7f4e487b7100000000000000000000000000000000000000000000000000000000600052602260045260246000fd5b7f4e487b7100000000000000000000000000000000000000000000000000000000600052604160045260246000fd5b6000601f19601f8301169050919050565b6108cf80620005396000396000f3fe608060405234801561001057600080fd5b506004361061004c5760003560e01c8063368b8772146100515780636fe15b441461006d5780639a2cdc0814610077578063ce6d41de14610095575b600080fd5b61006b6004803603810190610066919061050c565b6100b3565b005b6100756100cd565b005b61007f610127565b60405161008c919061065d565b60405180910390f35b61009d610172565b6040516100aa91906105a4565b60405180910390f35b80600190805190602001906100c9929190610401565b5050565b60016000808282546100df91906106f5565b925050819055506101256040518060400160405280600f81526020017f25732073656e7420612077617665210000000000000000000000000000000000815250336102a0565b565b600061016a6040518060400160405280601681526020017f5765206861766520256420746f74616c2077617665730000000000000000000081525060005461033c565b600054905090565b606060018054610181906107c9565b80601f01602080910402602001604051908101604052809291908181526020018280546101ad906107c9565b80156101fa5780601f106101cf576101008083540402835291602001916101fa565b820191906000526020600020905b8154815290600101906020018083116101dd57829003601f168201915b5050505050905090565b61029c828260405160240161021a9291906105f6565b6040516020818303038152906040527f4b5c4277000000000000000000000000000000000000000000000000000000007bffffffffffffffffffffffffffffffffffffffffffffffffffffffff19166020820180517bffffffffffffffffffffffffffffffffffffffffffffffffffffffff83818316178352505050506103d8565b5050565b61033882826040516024016102b69291906105c6565b6040516020818303038152906040527f319af333000000000000000000000000000000000000000000000000000000007bffffffffffffffffffffffffffffffffffffffffffffffffffffffff19166020820180517bffffffffffffffffffffffffffffffffffffffffffffffffffffffff83818316178352505050506103d8565b5050565b6103d4828260405160240161035292919061062d565b6040516020818303038152906040527f9710a9d0000000000000000000000000000000000000000000000000000000007bffffffffffffffffffffffffffffffffffffffffffffffffffffffff19166020820180517bffffffffffffffffffffffffffffffffffffffffffffffffffffffff83818316178352505050506103d8565b5050565b60008151905060006a636f6e736f6c652e6c6f679050602083016000808483855afa5050505050565b82805461040d906107c9565b90600052602060002090601f01602090048101928261042f5760008555610476565b82601f1061044857805160ff1916838001178555610476565b82800160010185558215610476579182015b8281111561047557825182559160200191906001019061045a565b5b5090506104839190610487565b5090565b5b808211156104a0576000816000905550600101610488565b5090565b60006104b76104b2846106a9565b610678565b9050828152602081018484840111156104cf57600080fd5b6104da848285610787565b509392505050565b600082601f8301126104f357600080fd5b81356105038482602086016104a4565b91505092915050565b60006020828403121561051e57600080fd5b600082013567ffffffffffffffff81111561053857600080fd5b610544848285016104e2565b91505092915050565b6105568161074b565b82525050565b6000610567826106d9565b61057181856106e4565b9350610581818560208601610796565b61058a81610888565b840191505092915050565b61059e8161077d565b82525050565b600060208201905081810360008301526105be818461055c565b905092915050565b600060408201905081810360008301526105e0818561055c565b90506105ef602083018461054d565b9392505050565b60006040820190508181036000830152610610818561055c565b90508181036020830152610624818461055c565b90509392505050565b60006040820190508181036000830152610647818561055c565b90506106566020830184610595565b9392505050565b60006020820190506106726000830184610595565b92915050565b6000604051905081810181811067ffffffffffffffff8211171561069f5761069e610859565b5b8060405250919050565b600067ffffffffffffffff8211156106c4576106c3610859565b5b601f19601f8301169050602081019050919050565b600081519050919050565b600082825260208201905092915050565b60006107008261077d565b915061070b8361077d565b9250827fffffffffffffffffffffffffffffffffffffffffffffffffffffffffffffffff038211156107405761073f6107fb565b5b828201905092915050565b60006107568261075d565b9050919050565b600073ffffffffffffffffffffffffffffffffffffffff82169050919050565b6000819050919050565b82818337600083830152505050565b60005b838110156107b4578082015181840152602081019050610799565b838111156107c3576000848401525b50505050565b600060028204905060018216806107e157607f821691505b602082108114156107f5576107f461082a565b5b50919050565b7f4e487b7100000000000000000000000000000000000000000000000000000000600052601160045260246000fd5b7f4e487b7100000000000000000000000000000000000000000000000000000000600052602260045260246000fd5b7f4e487b7100000000000000000000000000000000000000000000000000000000600052604160045260246000fd5b6000601f19601f830116905091905056fea264697066735822122005c5a9e9e21a6a7df6331d0acbd388e2d94f0952a75a631555f8d9d7b2fe5f3464736f6c6343000800003349206d69676874206e6f7420626520736d61727420627574206d7920636f6e74726163742069733a202573",
  "linkReferences": {},
  "deployedLinkReferences": {}
}