{
  "_format": "hh-sol-artifact-1",
  "contractName": "WavePortal",
  "sourceName": "contracts/WavePortal.sol",
  "abi": [
    {
      "inputs": [],
      "stateMutability": "nonpayable",
      "type": "constructor"
    },
    {
      "anonymous": false,
      "inputs": [
        {
          "indexed": true,
          "internalType": "address",
          "name": "from",
          "type": "address"
        },
        {
          "indexed": false,
          "internalType": "uint256",
          "name": "timestamp",
          "type": "uint256"
        },
        {
          "indexed": false,
          "internalType": "string",
          "name": "message",
          "type": "string"
        }
      ],
      "name": "NewWave",
      "type": "event"
    },
    {
      "inputs": [],
      "name": "getAllWaves",
      "outputs": [
        {
          "components": [
            {
              "internalType": "address",
              "name": "waver",
              "type": "address"
            },
            {
              "internalType": "uint256",
              "name": "timestamp",
              "type": "uint256"
            },
            {
              "internalType": "string",
              "name": "message",
              "type": "string"
            }
          ],
          "internalType": "struct WavePortal.Wave[]",
          "name": "",
          "type": "tuple[]"
        }
      ],
      "stateMutability": "view",
      "type": "function"
    },
    {
      "inputs": [],
      "name": "getLastMessage",
      "outputs": [
        {
          "internalType": "string",
          "name": "",
          "type": "string"
        }
      ],
      "stateMutability": "view",
      "type": "function"
    },
    {
      "inputs": [],
      "name": "getTotalWaveNum",
      "outputs": [
        {
          "internalType": "uint256",
          "name": "",
          "type": "uint256"
        }
      ],
      "stateMutability": "view",
      "type": "function"
    },
    {
      "inputs": [
        {
          "internalType": "string",
          "name": "_message",
          "type": "string"
        }
      ],
      "name": "wave",
      "outputs": [],
      "stateMutability": "nonpayable",
      "type": "function"
    }
  ],
  "bytecode": "0x60806040523480156200001157600080fd5b506200005d6040518060400160405280600881526020017f444f4757415445520000000000000000000000000000000000000000000000008152506200006360201b620004821760201c565b620001f7565b62000103816040516024016200007a919062000170565b6040516020818303038152906040527f41304fac000000000000000000000000000000000000000000000000000000007bffffffffffffffffffffffffffffffffffffffffffffffffffffffff19166020820180517bffffffffffffffffffffffffffffffffffffffffffffffffffffffff83818316178352505050506200010660201b60201c565b50565b60008151905060006a636f6e736f6c652e6c6f679050602083016000808483855afa5050505050565b60006200013c8262000194565b6200014881856200019f565b93506200015a818560208601620001b0565b6200016581620001e6565b840191505092915050565b600060208201905081810360008301526200018c81846200012f565b905092915050565b600081519050919050565b600082825260208201905092915050565b60005b83811015620001d0578082015181840152602081019050620001b3565b83811115620001e0576000848401525b50505050565b6000601f19601f8301169050919050565b610c4780620002076000396000f3fe608060405234801561001057600080fd5b506004361061004c5760003560e01c80632c6a71a614610051578063449d46c01461006f578063526bf76e1461008b578063bd43a908146100a9575b600080fd5b6100596100c7565b6040516100669190610927565b60405180910390f35b610089600480360381019061008491906106eb565b6100d0565b005b610093610247565b6040516100a091906108d5565b60405180910390f35b6100b1610331565b6040516100be91906108b3565b60405180910390f35b60008054905090565b60016000808282546100e29190610a39565b925050819055506101286040518060400160405280600f81526020017f25732073656e74206120776176652100000000000000000000000000000000008152503361051b565b600160405180606001604052803373ffffffffffffffffffffffffffffffffffffffff16815260200142815260200183815250908060018154018082558091505060019003906000526020600020906003020160009091909190915060008201518160000160006101000a81548173ffffffffffffffffffffffffffffffffffffffff021916908373ffffffffffffffffffffffffffffffffffffffff1602179055506020820151816001015560408201518160020190805190602001906101f19291906105e0565b5050503373ffffffffffffffffffffffffffffffffffffffff167f5f7e16dc676677766a70e9c5628aa6c54ddb8b6e5188e2ae1e1f17f1ffbea716428360405161023c929190610942565b60405180910390a250565b6060600180808054905061025b9190610a8f565b81548110610292577f4e487b7100000000000000000000000000000000000000000000000000000000600052603260045260246000fd5b906000526020600020906003020160020180546102ae90610b41565b80601f01602080910402602001604051908101604052809291908181526020018280546102da90610b41565b80156103275780601f106102fc57610100808354040283529160200191610327565b820191906000526020600020905b81548152906001019060200180831161030a57829003601f168201915b5050505050905090565b60606001805480602002602001604051908101604052809291908181526020016000905b8282101561047957838290600052602060002090600302016040518060600160405290816000820160009054906101000a900473ffffffffffffffffffffffffffffffffffffffff1673ffffffffffffffffffffffffffffffffffffffff1673ffffffffffffffffffffffffffffffffffffffff168152602001600182015481526020016002820180546103e890610b41565b80601f016020809104026020016040519081016040528092919081815260200182805461041490610b41565b80156104615780601f1061043657610100808354040283529160200191610461565b820191906000526020600020905b81548152906001019060200180831161044457829003601f168201915b50505050508152505081526020019060010190610355565b50505050905090565b6105188160405160240161049691906108d5565b6040516020818303038152906040527f41304fac000000000000000000000000000000000000000000000000000000007bffffffffffffffffffffffffffffffffffffffffffffffffffffffff19166020820180517bffffffffffffffffffffffffffffffffffffffffffffffffffffffff83818316178352505050506105b7565b50565b6105b382826040516024016105319291906108f7565b6040516020818303038152906040527f319af333000000000000000000000000000000000000000000000000000000007bffffffffffffffffffffffffffffffffffffffffffffffffffffffff19166020820180517bffffffffffffffffffffffffffffffffffffffffffffffffffffffff83818316178352505050506105b7565b5050565b60008151905060006a636f6e736f6c652e6c6f679050602083016000808483855afa5050505050565b8280546105ec90610b41565b90600052602060002090601f01602090048101928261060e5760008555610655565b82601f1061062757805160ff1916838001178555610655565b82800160010185558215610655579182015b82811115610654578251825591602001919060010190610639565b5b5090506106629190610666565b5090565b5b8082111561067f576000816000905550600101610667565b5090565b6000610696610691846109a3565b610972565b9050828152602081018484840111156106ae57600080fd5b6106b9848285610aff565b509392505050565b600082601f8301126106d257600080fd5b81356106e2848260208601610683565b91505092915050565b6000602082840312156106fd57600080fd5b600082013567ffffffffffffffff81111561071757600080fd5b610723848285016106c1565b91505092915050565b60006107388383610845565b905092915050565b61074981610ac3565b82525050565b61075881610ac3565b82525050565b6000610769826109e3565b6107738185610a06565b935083602082028501610785856109d3565b8060005b858110156107c157848403895281516107a2858261072c565b94506107ad836109f9565b925060208a01995050600181019050610789565b50829750879550505050505092915050565b60006107de826109ee565b6107e88185610a17565b93506107f8818560208601610b0e565b61080181610c00565b840191505092915050565b6000610817826109ee565b6108218185610a28565b9350610831818560208601610b0e565b61083a81610c00565b840191505092915050565b600060608301600083015161085d6000860182610740565b5060208301516108706020860182610895565b506040830151848203604086015261088882826107d3565b9150508091505092915050565b61089e81610af5565b82525050565b6108ad81610af5565b82525050565b600060208201905081810360008301526108cd818461075e565b905092915050565b600060208201905081810360008301526108ef818461080c565b905092915050565b60006040820190508181036000830152610911818561080c565b9050610920602083018461074f565b9392505050565b600060208201905061093c60008301846108a4565b92915050565b600060408201905061095760008301856108a4565b8181036020830152610969818461080c565b90509392505050565b6000604051905081810181811067ffffffffffffffff8211171561099957610998610bd1565b5b8060405250919050565b600067ffffffffffffffff8211156109be576109bd610bd1565b5b601f19601f8301169050602081019050919050565b6000819050602082019050919050565b600081519050919050565b600081519050919050565b6000602082019050919050565b600082825260208201905092915050565b600082825260208201905092915050565b600082825260208201905092915050565b6000610a4482610af5565b9150610a4f83610af5565b9250827fffffffffffffffffffffffffffffffffffffffffffffffffffffffffffffffff03821115610a8457610a83610b73565b5b828201905092915050565b6000610a9a82610af5565b9150610aa583610af5565b925082821015610ab857610ab7610b73565b5b828203905092915050565b6000610ace82610ad5565b9050919050565b600073ffffffffffffffffffffffffffffffffffffffff82169050919050565b6000819050919050565b82818337600083830152505050565b60005b83811015610b2c578082015181840152602081019050610b11565b83811115610b3b576000848401525b50505050565b60006002820490506001821680610b5957607f821691505b60208210811415610b6d57610b6c610ba2565b5b50919050565b7f4e487b7100000000000000000000000000000000000000000000000000000000600052601160045260246000fd5b7f4e487b7100000000000000000000000000000000000000000000000000000000600052602260045260246000fd5b7f4e487b7100000000000000000000000000000000000000000000000000000000600052604160045260246000fd5b6000601f19601f830116905091905056fea26469706673582212209d24e89f0d254fc8b14fe2b2c226a8679ab95f5251df958208a48e536c9ab5b864736f6c63430008000033",
  "linkReferences": {},
  "deployedLinkReferences": {}
}