{
  "_format": "hh-sol-artifact-1",
  "contractName": "WavePortal",
  "sourceName": "contracts/WavePortal.sol",
  "abi": [
    {
      "inputs": [],
      "stateMutability": "nonpayable",
      "type": "constructor"
    },
    {
      "anonymous": false,
      "inputs": [
        {
          "indexed": true,
          "internalType": "address",
          "name": "from",
          "type": "address"
        },
        {
          "indexed": false,
          "internalType": "uint256",
          "name": "timestamp",
          "type": "uint256"
        },
        {
          "indexed": false,
          "internalType": "string",
          "name": "message",
          "type": "string"
        }
      ],
      "name": "NewWave",
      "type": "event"
    },
    {
      "inputs": [],
      "name": "getAllWaves",
      "outputs": [
        {
          "components": [
            {
              "internalType": "address",
              "name": "waver",
              "type": "address"
            },
            {
              "internalType": "uint256",
              "name": "timestamp",
              "type": "uint256"
            },
            {
              "internalType": "string",
              "name": "message",
              "type": "string"
            }
          ],
          "internalType": "struct WavePortal.Wave[]",
          "name": "",
          "type": "tuple[]"
        }
      ],
      "stateMutability": "view",
      "type": "function"
    },
    {
      "inputs": [
        {
          "internalType": "string",
          "name": "_message",
          "type": "string"
        }
      ],
      "name": "wave",
      "outputs": [],
      "stateMutability": "nonpayable",
      "type": "function"
    }
  ],
  "bytecode": "0x608060405234801561001057600080fd5b506100596040518060400160405280600881526020017f444f47574154455200000000000000000000000000000000000000000000000081525061005e60201b6102eb1760201c565b6101e1565b6100fa81604051602401610072919061015f565b6040516020818303038152906040527f41304fac000000000000000000000000000000000000000000000000000000007bffffffffffffffffffffffffffffffffffffffffffffffffffffffff19166020820180517bffffffffffffffffffffffffffffffffffffffffffffffffffffffff83818316178352505050506100fd60201b60201c565b50565b60008151905060006a636f6e736f6c652e6c6f679050602083016000808483855afa5050505050565b600061013182610181565b61013b818561018c565b935061014b81856020860161019d565b610154816101d0565b840191505092915050565b600060208201905081810360008301526101798184610126565b905092915050565b600081519050919050565b600082825260208201905092915050565b60005b838110156101bb5780820151818401526020810190506101a0565b838111156101ca576000848401525b50505050565b6000601f19601f8301169050919050565b610901806101f06000396000f3fe608060405234801561001057600080fd5b50600436106100365760003560e01c8063449d46c01461003b578063bd43a90814610057575b600080fd5b610055600480360381019061005091906104b8565b610075565b005b61005f61019a565b60405161006c9190610671565b60405180910390f35b600060405180606001604052803373ffffffffffffffffffffffffffffffffffffffff168152602001428152602001838152509050600081908060018154018082558091505060019003906000526020600020906003020160009091909190915060008201518160000160006101000a81548173ffffffffffffffffffffffffffffffffffffffff021916908373ffffffffffffffffffffffffffffffffffffffff1602179055506020820151816001015560408201518160020190805190602001906101439291906103ad565b5050503373ffffffffffffffffffffffffffffffffffffffff167f5f7e16dc676677766a70e9c5628aa6c54ddb8b6e5188e2ae1e1f17f1ffbea716428460405161018e9291906106b5565b60405180910390a25050565b60606000805480602002602001604051908101604052809291908181526020016000905b828210156102e257838290600052602060002090600302016040518060600160405290816000820160009054906101000a900473ffffffffffffffffffffffffffffffffffffffff1673ffffffffffffffffffffffffffffffffffffffff1673ffffffffffffffffffffffffffffffffffffffff168152602001600182015481526020016002820180546102519061082a565b80601f016020809104026020016040519081016040528092919081815260200182805461027d9061082a565b80156102ca5780601f1061029f576101008083540402835291602001916102ca565b820191906000526020600020905b8154815290600101906020018083116102ad57829003601f168201915b505050505081525050815260200190600101906101be565b50505050905090565b610381816040516024016102ff9190610693565b6040516020818303038152906040527f41304fac000000000000000000000000000000000000000000000000000000007bffffffffffffffffffffffffffffffffffffffffffffffffffffffff19166020820180517bffffffffffffffffffffffffffffffffffffffffffffffffffffffff8381831617835250505050610384565b50565b60008151905060006a636f6e736f6c652e6c6f679050602083016000808483855afa5050505050565b8280546103b99061082a565b90600052602060002090601f0160209004810192826103db5760008555610422565b82601f106103f457805160ff1916838001178555610422565b82800160010185558215610422579182015b82811115610421578251825591602001919060010190610406565b5b50905061042f9190610433565b5090565b5b8082111561044c576000816000905550600101610434565b5090565b600061046361045e84610716565b6106e5565b90508281526020810184848401111561047b57600080fd5b6104868482856107e8565b509392505050565b600082601f83011261049f57600080fd5b81356104af848260208601610450565b91505092915050565b6000602082840312156104ca57600080fd5b600082013567ffffffffffffffff8111156104e457600080fd5b6104f08482850161048e565b91505092915050565b60006105058383610603565b905092915050565b610516816107ac565b82525050565b600061052782610756565b6105318185610779565b93508360208202850161054385610746565b8060005b8581101561057f578484038952815161056085826104f9565b945061056b8361076c565b925060208a01995050600181019050610547565b50829750879550505050505092915050565b600061059c82610761565b6105a6818561078a565b93506105b68185602086016107f7565b6105bf816108ba565b840191505092915050565b60006105d582610761565b6105df818561079b565b93506105ef8185602086016107f7565b6105f8816108ba565b840191505092915050565b600060608301600083015161061b600086018261050d565b50602083015161062e6020860182610653565b50604083015184820360408601526106468282610591565b9150508091505092915050565b61065c816107de565b82525050565b61066b816107de565b82525050565b6000602082019050818103600083015261068b818461051c565b905092915050565b600060208201905081810360008301526106ad81846105ca565b905092915050565b60006040820190506106ca6000830185610662565b81810360208301526106dc81846105ca565b90509392505050565b6000604051905081810181811067ffffffffffffffff8211171561070c5761070b61088b565b5b8060405250919050565b600067ffffffffffffffff8211156107315761073061088b565b5b601f19601f8301169050602081019050919050565b6000819050602082019050919050565b600081519050919050565b600081519050919050565b6000602082019050919050565b600082825260208201905092915050565b600082825260208201905092915050565b600082825260208201905092915050565b60006107b7826107be565b9050919050565b600073ffffffffffffffffffffffffffffffffffffffff82169050919050565b6000819050919050565b82818337600083830152505050565b60005b838110156108155780820151818401526020810190506107fa565b83811115610824576000848401525b50505050565b6000600282049050600182168061084257607f821691505b602082108114156108565761085561085c565b5b50919050565b7f4e487b7100000000000000000000000000000000000000000000000000000000600052602260045260246000fd5b7f4e487b7100000000000000000000000000000000000000000000000000000000600052604160045260246000fd5b6000601f19601f830116905091905056fea2646970667358221220d237f4333d92834b5124dc7268b897c5c23c013ff530d6612a0eb7a71c8cc7b864736f6c63430008000033",
  "linkReferences": {},
  "deployedLinkReferences": {}
}